:20014300AF827E008EF005F07C80E4FD3392D28008A2D2ED13FDEC13FCD5F0F58F027B004C
:1B016300EA5204EB5205EC4D24FF92B2D2B4C2B40EBE080040CED2B3C2B32265
:1F00D700750F007510007508FC750921750A0A750B00750C00750D40750E1FD200D20156
:20017E00D2A3A2A392A2A2A292A1A2A192A0E50F24FC403CE50F75F003A490019C73020154
:20019E00A80201B20201BC0201C67582BF120143C2A0801C7582BF120143C2A1801275825A
:2001BE00BF120143C2A280087582BF120143C2A3050FE50F24FC5003750F0022AF82E54830
:2001DE006008EF90138393F58222EF90136993F58222E51A60127511157512FF7513FF75A3
:2001FE0014FF7582FF0203D37511167512FF7513FF7514FF7582FF0203D3AE82AF837548E2
:20021E0010754927C007C0061212B7AC82D006D0077548107549278E828F83C007C006C067
:20023E00041213187548E87549031212B7AB82D004D006D0077548E87549038E828F83C028
:20025E0007C006C004C0031213187548647549001212B7AA82D003D004D006D00775486494
:20027E007549008E828F83C004C003C002121318AE82D002D003D00475F00AEE84FEBC01B5
:20029E0000500F8B118A128E137514037582640203D38B118A128E137514038C820203D3FE
:2002BE00E51BB5080EE51CB5090985088285098302021830010F851B08851C09851B828518
:2002DE001C83020218300030E51BB50806E51CB50901220508E4B5080205098508828509E5
:2002FE0083120218AE08AF09C374309E742A9F503A7508B075091D22200030E51BB50806FA
:20031E00E51CB5090122150874FFB508021509850882850983120218AE08AF09C3EE94B0C1
:20033E00EF941D500675083075092A22AF198F0675F00AEE84F51175F00AEF84AFF08F12CC
:20035E007513647514647582640203D3AF0B8F0675F064EE84FE8F0575F064ED84ADF0750B
:20037E00F00AED84FD75F00AEF84AFF0EE600F8E118D128F137514FF7582FF0203D375115D
:20039E00FF8D128F137514FF7582FF0203D3AF0C8F0675F00AEE84AEF08E1375F064EF84FD
:2003BE00AFF075F00AEF84F5127511197514FF7582170203D3AF82D2A3A2A392A2A2A29295
:2003DE00A1A2A192A0E51024FC500302047DE51075F003A49003F6730204020204220204CB
:2003FE0041020460BF1A00400302047D7401B5140474018001E4F5488F821201DA120143EC
:20041E00C2A0805B74E6251140557402B5140474018001E4F5488511821201DA120143C2E5
:20043E00A1803C74E6251240367403B5140474018001E4F5488512821201DA120143C2A21F
:20045E00801D74E6251340177404B5140474018001E4F5488513821201DA120143C2A305D5
:20047E0010E51024FC500375100022740AB50A030202BE7401B50A0302034A7402B50A037F
:20049E0002036A7403B50A030201F0740EB50A030203AC740FB50A0302017E221205CC756E
:2004BE000A030204C3E51A7006750D40750E1F22E51A6003020489AE0DAF0EC3740A9EE421
:1F04DE009F500D120489150D74FFB50D02150E22D2A3A2A392A2A2A292A1A2A192A022CA
:20136900C0F9A4B0999282F880907F8883C6A1868E8CC1CE9189C712C8AB407924301912E4
:07138900027800107FC78904
:2004FD0075C70075C50075C60075C38075C40022AE82AF8375C78075C5038EC48FC375C6E1
:20051D005A75C6A51200000204FDAE82AF8375C78075C5018EC48FC375C65A75C6A51200EB
:20053D0000AFC2C0071204FDD0078F8222AE82AF8375C78075C5017D008D048E028F038C34
:20055D00017C00E92AFAEC3BFB8AC48BC375C65A75C6A5C007C006C005120000120000D07B
:20057D0005D006D007ED2515FAE43516FBAC178A828B838CF0E5C21212E00DBD030040B997
:20059D000204FDAE82AF8375C78075C5028EC48FC38518C275C65A75C6A51200000204FD54
:1200F60075190A751A01751BD8751C1D751D00751E0095
:2005BD00900000228582192285821B85831C22900400120527E58230E005751A00800375ED
:1C05DD001A0190040012050D851A189004000205A022222275820022900000220C
:1805F900438E805389F0438901758A88758C96C28DD2A9D2AFD28C2217
:2006110000007F427E21DFFEDEFC22007F04DFFE22AE82AF838E048F051EBEFF011FEC4D52
:20063100600DC007C006120611D006D00780E622020622AE82AF838E048F051EBEFF011FA4
:12065100EC4D600DC007C00612061CD006D00780E622FB
:20010800752200752300752400752500752600E4F527F528F529F52AF52BF52CF52DF52EFA
:12012800F52FF530F531F532F533F534F535F536F5375D
:200663008522827522002230963AE4F527F528E52F6006752F00752201E5336021E53560AF
:20068300057535008015E5366005753600800CE5376005753700800375220B7533007523CA
:2006A30000020724E5236003020724E5357072E536706EE537706A0527E4B527020528C3A9
:2006C30074149527E495285003752F010527E4B527020528C37458952774029528504220EF
:2006E3009711752301753301752F0075350175220C802E209511752301753301752F00754C
:20070300360175220D801A209411752301753301752F0075370175220E8006752F00753392
:2007230001309713E5306006753000752202E4F524F529F52A8049E5247045E52F7041E5B7
:2007430033703DE5357039E5367035E53770310529E4B52902052AC374149529E4952A5059
:20076300037530020529E4B52902052AC3745895297402952A5009753000752402752216E3
:2007830030951AE5006003750000E5316006753100752203E4F525F52BF52C8049E525707C
:2007A30045E52F7041E533703DE5357039E5367035E5377031052BE4B52B02052CC37414B5
:2007C300952BE4952C5003753101052BE4B52B02052CC37458952B7402952C50097531000B
:2007E300752501752221309412E5326006753200752204E4F526F52DF52E22E5267045E503
:200803002F7041E533703DE5357039E5367035E5377031052DE4B52D02052EC37414952DB6
:20082300E4952E5003753201052DE4B52D02052EC37458952D7402952E50097532007526C1
:050843000175222C22CA
:0400000002007E324A
:03000B000209BC2B
:200010000000E2FBEAF2802C0000E0FBEAF08024E6B50202EBF62200E2B50202EBF22200D6
:20003000E0B50202EBF02230F6E0A88220F5D3EAC6F582228B822230F6E6A88220F5D980E6
:01005000CFE0
:03013A0075380015
:0301400002005169
:0300510002099110
:20084800120663E582FF700122BF0C07C0071204BAD007E538600ABF0307753800750A0A56
:2008680022E5386012BF040F120FAC851B08851C09753800D20122BF1E0122BF0E0A121132
:200888005D85820B750A0222BF1609750A011204C30210FDBF0123750A011204C3AD197E78
:2008A800000DBD00010EC3ED9410EE648094805008E51904F58202109222BF0213750A0132
:2008C8001204C3E5196008E51914F58202109222BF0338D200C2011204C3AD1BAE1C740A0A
:2008E8002DFDE43EFE8D1B8E1CC374309D742A9E5006751BB0751C1D851B82851C83120D6B
:20090800ED851B08851C09751DFF22BF0433C200C2011204C3AD1BAE1CED24F6FDEE34FFD2
:20092800FE8D1B8E1CC3ED94B0EE941D5006751B30751C2A851B82851C83120DED751DFF18
:2009480022BF2121750A0F758201120F9B85821B85831C750A0A753800851B08851C0975E7
:200968001DFFD20122BF2C20750A0F758200120F9B85821B85831C753800750A0A851B08EE
:20098800851C09751DFFD20122120B7090000A120622851B08851C095395F043960F120595
:2009A800F9901DD8120DEDD20175820A12109212084880FBC021C0E0C0F0C082C083C007C3
:2009C800C006C005C004C003C002C001C000C0D075D0001204CE12066A74F6250A401D0584
:2009E8003BE4B53B02053CAE3BAF3CC3EE94A0EF940F4008E4F53BF53C750A0A758A887540
:200A08008C96C28DD0D0D000D001D002D003D004D005D006D007D083D082D0F0D0E0D0211B
:030A280002005475
:200A2B0090000A020644D2A4D2A5120A2BC2A4120A2BC2A522C2A4D2A5120A2BD2A4020AB5
:200A4B002BE58224FF92A4120A2BD2A5120A2BC2A522D2A4120A2BD2A5120A2BA2A49202BD
:200A6B00C2A5A202E433F58222AF827E088E051EED6021EF30E704D2A48002C2A4C007C0EB
:200A8B0006120A2BD2A5120A2BD006D007C2A5EF2FFF80D9120A5DE58224FFE433F5822203
:200AAB00AF827E00D2A47D088D041DEC602BEE2EFED2A5C007C006C005120A2BD005D00687
:200ACB00D00730A4010EC2A5C007C006C005120A2BD005D006D00780CF8F82C006120A4C41
:050AEB00D0068E8222FE
:03013D00753D000D
:200AF000AF82754000754100AE3F8E058D40AE3E8E41C007120A31758222120A74D0078F1F
:200B100082120A74854082120A74854182120A74020A40AF82754200754300C007120A3104
:200B3000758222120A74D0078F82120A74120A31758223120A74758200120AABE582F54231
:200B5000758201120AABE582F543120A40AF427E00AC437D00EC4206ED42078E828F832242
:200B7000753E01753FC0758202120AF0900258120622753E02753F00758202120AF0900016
:200B900032120622753E0D753FC0758202120AF0900032120622753E18753F007582031219
:200BB0000AF0753E00753F04758204120AF0753EA5753F86758205120AF0753E00753F8038
:200BD000758206120AF0753E1A753F5F758207120AF07582000210D0AE82AF83758203C01D
:200BF00007C006120B23AC82D006D00753040CE4C313CC13CCC313CC13CCEC700C7BFC7D58
:200C10002175443075452A8053BC010C7BB07D1D75448C7545238044BC020C7BB07D1D758B
:200C3000443075452A8035BC032E758207C007C006120B23AC83D006D007EC035401600C53
:200C50007B647D197544B075451D80107B887D137544B075451D800490000022758203C07C
:200C700007C006C005C003120B23A882D003D005D006D007530003E870057A0AFC801FB8C6
:200C900001067A147C008016B802067A057C00800DB803067A027C00800490000022C3EEB5
:200CB0009BEF9D500490000022C3E5449EE5459F500490000022EEC39BF582EF9DF5838A4D
:200CD000488C490212B7AE82AF83758203C007C006120B23AC82D006D00753040CE4C313FB
:200CF000CC13CCC313CC13CC4C700C7AFC7B2175463075472A8053BC010C7AB07B1D7546F4
:200D10008C7547238044BC020C7AB07B1D75463075472A8035BC032E758207C007C00612F8
:200D30000B23AD83D006D007ED035401600C7A647B197546B075471D80107A887B13754656
:200D5000B075471D800490000022758203C007C006C003C002120B23AC82D002D003D006CF
:200D7000D0075304037D00EC4D7005780AF9801FBC0106781479008016BC020678057900D5
:200D9000800DBC030678027900800490000022884889498E828F83C003C0021212FBAE8230
:200DB000AF83D002D003EE2AFEEF3BFFC3E5469EE5479F500490000022C3EE9AEF9B500487
:200DD000900000228E828F832275820A120B23AE82AF835307038E828F83020CD6AE82AF28
:200DF00083C007C006120BE8AC82AD83758203C005C004120B23AA82D004D00553023F7BC9
:200E100000530503ED5403A2E0CC13CC13A2E0CC13CC13CCFDEA4204EB420574104CF53E75
:200E30008D3F758203120AF0D006D0077C007D0075820AC007C006C005C004120B23E5826C
:200E50008583F0D004D005D006D007E5F020E643900001C007C006C005C004120622D00461
:200E7000D005D006D0078C028D030CBC00010DC374F49A74019B50B8758203120B23AC82A7
:200E9000AD835304EF8C3E8D3F758203120AF075820022750A0A8E1B8F1C75820122758229
:200EB00005120B23AE83740F5EF58222AF82758205C007120B23AD82AE83D0075306F08FEF
:200ED000047F00ED4207EE42048F3E8C3F758205020AF0AF82758202C007120B23AD82AE77
:200EF00083D007BF01098D048E0743070280075306FD8D048E074307018C3E8F3F7582026E
:200F1000120AF07E007F0075820AC007C006120B23E5828583F0D006D007E5F020E63A9039
:200F3000000AC007C006120622D006D0078E048F050EBE00010FC374C89CE49D50C97582F5
:200F500002120B23AE82AF835307FE8E3E8F3F758202120AF090000022758203120B23E515
:200F7000828583F04410F53E85F03F758203120AF0758202120B23AE82AF835307FE8E3EE7
:200F90008F3F758202120AF0020DD9020EE375820B120B23AE835306018E82227F0075821E
:200FB00003C007120B23AD82D00753050CE4C313CD13CDC313CD13CDEDFE700A7CFC7D2148
:200FD0007A307B2A8044BE010A7CB07D1D7A8C7B238037BE020A7CB07D1D7A307B2A802A7B
:200FF000BE0326758207C007120B23AE83D007EE035401600A7C647D197AB07B1D800B7CFE
:20101000887D137AB07B1D8001228C088D098C1B8D1CD200750A0AC2018C828D83C007C006
:2010300003C002120DED9000321206221205EED002D003D007EAB51B06EBB51C02803375AC
:201050008201C007C003C002120EE385821B85831C120F9EE582D002D003D00760D7851BEF
:2010700048851C497582001205EF9000641206227F01EF600C751D007582001205F5020D84
:20109000ED22AF82758205C007120B23AD82AE83D0075305F08F0353030F7C00ED4203EEEB
:2010B00042048B3E8C3F758205C007120AF0D0078F821205C1E53D70067582010210D02223
:2010D000AF82758202C007120B23AD82AE83D007EF60098D048E0743074080075306BF8D64
:2010F000048E078C3E8F3F758202020AF0758202120B23AE82E583FF23235403F430E00C3D
:201110008E048F05430540753D01800A5307BF8E048F05753D008C3E8D3F758202020AF058
:20113000AF82758202C007120B23AD82AE83D007EF60098D048E0753077F80074306808D03
:20115000048E078C3E8F3F758202020AF075820B120B23E583C313F58222758200020B2319
:20117000AF82758203C007120B23AD82AE83D007BF01118D038E045303F38B3E8C3F75822F
:2011900003020AF0BF02148D038E045303F774044BF53E8C3F758203020AF0BF0314430527
:2011B000088D038E045303FB8B3E8C3F758203020AF0BF042743050474084DF53E8E3F75A6
:2011D0008203120AF0758207120B23AB82AC834304028B3E8C3F758207020AF0BF052743CF
:2011F000050474084DF53E8E3F758203120AF0758207120B23AE82AF835307FD8E3E8F3F76
:20121000758207020AF022AF82758203C007120B23AD82AE83D007BF010D8D038E045303F4
:20123000FC8B058C068034BF020F8D038E045303FD74014BFD8C068022BF03104305028DED
:20125000038E045303FE8B058C06800FBF040C74024DFC8E0774014CFD8F068D3E8E3F7561
:171270008203020AF0753E03753F00758202120AF09000320206228B
:20128700759850438E01438E0475D74175D6FD438E102285829910990280FB22AE82AF8321
:1012A700C007C00612129AD006D0078E828F8322FB
:2012B7007A10E4FBFCE58225E0F582E58333F583EB33FBEC33FCEB9548F5F0EC95494006CB
:0912D700FCABF0438201DADD22D8
:0600AD00E478FFF6D8FD27
:20008B007900E94400601B7A00901390780175A000E493F2A308B8000205A0D9F4DAF27578
:0200AB00A0FFB4
:20005400C000A88118C0D0B6001B18B610004015B637005010C0E0E65407B406005004E6D5
:0A00740054F8F6D0E0D0D0D00032EE
:1B12E00020F71130F6138883A88220F509F6A8837583002280FEF280F5F0220D
:1D12FB00E5828548F0A4C582C0F08549F0A4D0F025F0C5838548F0A42583F58322F5
:20131800E548454960467A01E54825E0F548E549334012F549E5829548E583954940030AA2
:2013380080E6C3E54913F549E54813F548C3E5829548F5F0E58395494005F58385F082C3C7
:0D135800E54913F549E54813F548DAE122AF
:2000B3007800E84400600A790175A000E4F309D8FC7800E84400600C7900900001E4F0A34B
:0400D300D8FCD9FA82
:0D007E00758149121365E58260030200518F
:04136500758200226B
:00000001FF
