:20010E00AF827E008EF005F07C80E4FD3392D28008A2D2ED13FDEC13FCD5F0F58F027B0081
:1B012E00EA5204EB5205EC4D24FF92B2D2B4C2B40EBE080040CED2B3C2B3229A
:1C00A500750F007508FC750921750A0A750B00750C00750D40750E1FD200D20110
:20014900AF82E51E6008EF9012FB93F58222EF9012E193F58222E51960127510157511FF15
:200169007512FF7513FF7582FF0203457510167511FF7512FF7513FF7582FF020345AE828C
:20018900AF83751E10751F27C007C00612122FAC82D006D007751E10751F278E828F83C0CB
:2001A90007C006C004121290751EE8751F0312122FAB82D004D006D007751EE8751F038E3E
:2001C900828F83C007C006C004C003121290751E64751F0012122FAA82D003D004D006D063
:2001E90007751E64751F008E828F83C004C003C002121290AE82D002D003D00475F00AEE3F
:2002090084FEBC0100500F8B108A118E127513037582640203458B108A118E127513038C44
:2002290082020345E51AB5080EE51BB5090985088285098302018730010F851A08851B091E
:20024900851A82851B83020187300031E51AB50806E51BB50901220508E4B5080205098580
:200269000882850983120187AE08AF09C374309E742A9F50D77508FC75092180CF200032B0
:20028900E51AB50806E51BB5090122150874FFB508021509850882850983120187AE08AF26
:2002A90009C3EE94FCEF942150D675083075092A80CE22AF188F0675F00AEE84F51075F0B5
:2002C9000AEF84AFF08F11751264751364758264020345AF0B8F0675F064EE84FE8F05754C
:2002E900F064ED84ADF075F00AED84FD75F00AEF84AFF0EE600F8E108D118F127513FF75FF
:2003090082FF0203457510FF8D118F127513FF7582FF020345AF0C8F0675F00AEE84AEF0B0
:200329008E1275F064EF84AFF075F00AEF84F5117510197513FF758217020345AF82D2A32E
:20034900A2A392A2A2A292A1A2A192A0E50F24FC50030203EFE50F75F003A4900368730264
:2003690003740203940203B30203D2BF1A0040030203EF7401B5130474018001E4F51E8F08
:200389008212014912010EC2A0805B74E6251040557402B5130474018001E4F51E851082AE
:2003A90012014912010EC2A1803C74E6251140367403B5130474018001E4F51E8511821238
:2003C900014912010EC2A2801D74E6251240177404B5130474018001E4F51E851282120163
:2003E9004912010EC2A3900005120592050FE50F24FC5003750F0022740AB50A0312022D45
:200409007401B50A031202BC7402B50A031202DC7403B50A0312015F740EB50A0302031E92
:200429002212053C750A03020433E5197006750D40750E1F22E5196003020401AE0DAF0EA9
:20044900C3740A9EE49F500D120401150D74FFB50D02150E22D2A3A2A392A2A2A292A1A218
:04046900A192A0229A
:2012E100C0F9A4B0999282F880907F8883C6A1868E8CC1CE9189C712C8AB4079243019126D
:07130100027800107FC7898C
:20046D0075C70075C50075C60075C38075C40022AE82AF8375C78075C5038EC48FC375C671
:20048D005A75C6A512000002046DAE82AF8375C78075C5018EC48FC375C65A75C6A512000C
:2004AD0000AFC2C00712046DD0078F8222AE82AF8375C78075C5017D008D048E028F038C55
:2004CD00017C00E92AFAEC3BFB8AC48BC375C65A75C6A5C007C006C005120000120000D00C
:2004ED0005D006D007ED2514FAE43515FBAC168A828B838CF0E5C21212580DBD030040B9B3
:20050D0002046DAE82AF8375C78075C5028EC48FC38517C275C65A75C6A512000002046D05
:1200C10075180A751901751AD8751B1D751C00751D00D0
:20052D00900000228582182285821A85831B22900400120497E58230E00575190080037512
:1C054D00190190040012047D8519179004000205102222227582002290000022C0
:18056900438E805389F0438901758A88758C96C28DD2A9D2AFD28C22A7
:2005810000007F427E21DFFEDEFC22007F04DFFE22AE82AF838E048F051EBEFF011FEC4DE3
:2005A100600DC007C006120581D006D00780E622020592AE82AF838E048F051EBEFF011F57
:1205C100EC4D600DC007C00612058CD006D00780E6221D
:2000D300752100752200752300752400752500E4F526F527F528F529F52AF52BF52CF52D3D
:1200F300F52EF52FF530F531F532F533F534F535F5369C
:2005D3008521827521002230963AE4F526F527E52E6006752E00752101E5326021E5346049
:2005F300057534008015E5356005753500800CE5366005753600800375210B753200752263
:2006130000020694E5226003020694E5347072E535706EE536706A0526E4B526020527C362
:2006330074149526E495275003752E010526E4B526020527C3745895267402952750422087
:200653009711752201753201752E0075340175210C802E209511752201753201752E0075E4
:20067300350175210D801A209411752201753201752E0075360175210E8006752E0075322C
:2006930001309713E52F6006752F00752102E4F523F528F5298049E5237045E52E7041E550
:2006B30032703DE5347039E5357035E53670310528E4B528020529C374149528E4952950F3
:2006D30003752F020528E4B528020529C374589528740295295009752F007523027521167D
:2006F300309513E5306006753000752103E4F524F52AF52B8049E5247045E52E7041E532B8
:20071300703DE5347039E5357035E5367031052AE4B52A02052BC37414952AE4952B5003B7
:20073300753001052AE4B52A02052BC37458952A7402952B500975300075240175212130D9
:200753009412E5316006753100752104E4F525F52CF52D22E5257045E52E7041E532703D7A
:20077300E5347039E5357035E5367031052CE4B52C02052DC37414952CE4952D5003753154
:1E07930001052CE4B52C02052DC37458952C7402952D500975310075250175212C2217
:0300000002004CAF
:200008000000E2FBEAF2802C0000E0FBEAF08024E6B50202EBF62200E2B50202EBF22200DE
:20002800E0B50202EBF02230F6E0A88220F5D3EAC6F582228B822230F6E6A88220F5D980EE
:01004800CFE8
:030105007537004B
:03010B00020049A6
:0300490002093C6D
:2007B1001205D3E582FF700122BF0C07C00712042AD007E537601CBF0119120E16AE82BE00
:2007D1000F047E0080010E8E82C006120E24D0068E0C22E537601CBF0219120E16E582FE2F
:2007F10070047E0F80011E8E82C006120E24D0068E0C22E537600ABF0307753700750A0A18
:2008110022E5376012BF040F120F14851A08851B09753700D20122BF0D17120E1685820CF3
:20083100753701750A0EE519700675190175370B22BF0E0A1210D585820B750A0222BF1639
:2008510009750A01120433021075BF0123750A01120433AD187E000DBD00010EC3ED941012
:20087100EE648094805008E51804F58202100A22BF0213750A01120433E5186008E5181460
:20089100F58202100A22BF0332D200C201120433AD1AAE1B740A2DFDE43EFE8D1A8E1BC355
:2008B10074309D742A9E5006751AFC751B21851A82851B83120D55751CFF22BF0433C200F6
:2008D100C201120433AD1AAE1BED24F6FDEE34FFFE8D1A8E1BC3ED94FCEE94215006751A30
:2008F10030751B2A851A82851B83120D55751CFF22BF211AE51DB51C05751C008002051C8D
:20091100D201120433851C82120565020D55BF2C19E51C7005851D1C8002151CD2011204D3
:2009310033851C82120565020D5522120AD890000A120592851A08851B09120569901DD8C2
:20095100120D55D20175820A12100A1207B180FB12043E1205DA74F6250A401D053AE4B5BA
:200971003A02053BAE3AAF3BC3EE94A0EF940F4008E4F53AF53B750A0A758A88758C96C2AD
:020991008D22B5
:2009930090000A0205B4D2A4D2A5120993C2A4120993C2A522C2A4D2A5120993D2A40209AB
:2009B30093E58224FF92A4120993D2A5120993C2A522D2A4120993D2A5120993A2A4920252
:2009D300C2A5A202E433F58222AF827E088E051EED6021EF30E704D2A48002C2A4C007C084
:2009F30006120993D2A5120993D006D007C2A5EF2FFF80D91209C5E58224FFE433F5822267
:200A1300AF827E00D2A47D088D041DEC602BEE2EFED2A5C007C006C005120993D005D006B8
:200A3300D00730A4010EC2A5C007C006C005120993D005D006D00780CF8F82C0061209B40B
:050A5300D0068E822296
:03010800753C0043
:200A5800AF82753F00754000AE3E8E058D3FAE3D8E40C0071209997582221209DCD0078FEF
:200A7800821209DC853F821209DC8540821209DC0209A8AF82754100754200C0071209999E
:200A98007582221209DCD0078F821209DC1209997582231209DC758200120A13E582F541C7
:200AB800758201120A13E582F5421209A8AF417E00AC427D00EC4206ED42078E828F83220F
:200AD800753D01753EC0758202120A58900258120592753D02753E00758202120A58900074
:200AF80032120592753D0D753EC0758202120A58900032120592753D18753E007582031270
:200B18000A58753D00753E04758204120A58753DA5753E86758205120A58753D00753E809E
:200B3800758206120A58753D1A753E5F758207120A58758200021048AE82AF83758203C06F
:200B580007C006120A8BAC82D006D00753040CE4C313CC13CCC313CC13CCEC700C7BFC7D89
:200B78002175433075442A8053BC010C7BB07D1D75438C7544238044BC020C7BB07D1D7528
:200B9800433075442A8035BC032E758207C007C006120A8BAC83D006D007EC035401600C87
:200BB8007B647D197543B075441D80107B887D137543B075441D800490000022758203C019
:200BD80007C006C005C003120A8BA882D003D005D006D007530003E870057A0AFC801FB8F8
:200BF80001067A147C008016B802067A057C00800DB803067A027C00800490000022C3EE4E
:200C18009BEF9D500490000022C3E5439EE5449F500490000022EEC39BF582EF9DF5838AE7
:200C38001E8C1F02122FAE82AF83758203C007C006120A8BAC82D006D00753040CE4C31308
:200C5800CC13CCC313CC13CC4C700C7AFC7B2175453075462A8053BC010C7AB07B1D75458F
:200C78008C7546238044BC020C7AB07B1D75453075462A8035BC032E758207C007C0061294
:200C98000A8BAD83D006D007ED035401600C7A647B197545B075461D80107A887B1375458B
:200CB800B075461D800490000022758203C007C006C003C002120A8BAC82D002D003D00602
:200CD800D0075304037D00EC4D7005780AF9801FBC0106781479008016BC0206780579006E
:200CF800800DBC030678027900800490000022881E891F8E828F83C003C002121273AE82A5
:200D1800AF83D002D003EE2AFEEF3BFFC3E5459EE5469F500490000022C3EE9AEF9B500421
:200D3800900000228E828F832275820A120A8BAE82AF835307038E828F83020C3EAE82AFF1
:200D580083C007C006120B50AC82AD83758203C005C004120A8BAA82D004D00553023F7B92
:200D780000530503ED5403A2E0CC13CC13A2E0CC13CC13CCFDEA4204EB420574104CF53D0F
:200D98008D3E758203120A58D006D0077C007D0075820AC007C006C005C004120A8BE58237
:200DB8008583F0D004D005D006D007E5F020E643900001C007C006C005C004120592D0048B
:200DD800D005D006D0078C028D030CBC00010DC374F49A74019B50B8758203120A8BAC82D9
:200DF800AD835304EF8C3D8D3E758203120A5875820022750A0A8E1A8F1B7582012275825E
:200E180005120A8BAE83740F5EF58222AF82758205C007120A8BAD82AE83D0075306F08FB9
:200E3800047F00ED4207EE42048F3D8C3E758205020A58AF82758202C007120A8BAD82AE42
:200E580083D007BF01098D048E0743070280075306FD8D048E074307018C3D8F3E75820208
:200E7800120A587E007F0075820AC007C006120A8BE5828583F0D006D007E5F020E63A9003
:200E9800000AC007C006120592D006D0078E048F050EBE00010FC374C89CE49D50C975821F
:200EB80002120A8BAE82AF835307FE8E3D8F3E758202120A5890000022758203120A8BE57A
:200ED800828583F04410F53D85F03E758203120A58758202120A8BAE82AF835307FE8E3DB4
:200EF8008F3E758202120A58020D41020E4B75820B120A8BAE835306018E82227582031283
:200F18000A8BAE8253060CE4C313CE13CEC313CE13CEEEFF700A7DFC7E217B307C2A803F12
:200F3800BF010A7DB07E1D7B8C7C238032BF020A7DB07E1D7B307C2A8025BF032175820745
:200F5800120A8BE583035401600A7D647E197BB07C1D800B7D887E137BB07C1D8001228D57
:200F7800088E098D1A8E1BD200750A0AC2018D828E83C004C003120D5590003212059212B4
:200F9800055ED003D0047E007F00EBB51A06ECB51B02804B758201C007C006C004C00312CB
:200FB8000E4B85821A85831B120F06E582D003D004D006D00760D38E82851A1E851B1FC01B
:200FD80007C006C004C00312055F900064120592D003D004D006D0070EBE00AE0F80ABEE9C
:200FF80014F582120560751C00758200120565020D55AF82758205C007120A8BAD82AE8374
:20101800D0075305F08F0353030F7C00ED4203EE42048B3D8C3E758205C007120A58D00720
:201038008F82120531E53C700675820102104822AF82758202C007120A8BAD82AE83D00765
:20105800EF60098D048E0743074080075306BF8D048E078C3D8F3E758202020A58758202BF
:20107800120A8BAE82E583FF23235403F430E00C8E048F05430540753C01800A5307BF8EDC
:20109800048F05753C008C3D8D3E758202020A58AF82758202C007120A8BAD82AE83D0072F
:2010B800EF60098D048E0753077F80074306808D048E078C3D8F3E758202020A5875820B56
:2010D800120A8BE583C313F58222758200020A8BAF82758203C007120A8BAD82AE83D0071C
:2010F800BF01118D038E045303F38B3D8C3E758203020A58BF02148D038E045303F77404F0
:201118004BF53D8C3E758203020A58BF03144305088D038E045303FB8B3D8C3E75820302EB
:201138000A58BF042743050474084DF53D8E3E758203120A58758207120A8BAB82AC834386
:2011580004028B3D8C3E758207020A58BF052743050474084DF53D8E3E758203120A58759C
:201178008207120A8BAE82AF835307FD8E3D8F3E758207020A5822AF82758203C007120A44
:201198008BAD82AE83D007BF010D8D038E045303FC8B058C068034BF020F8D038E04530316
:2011B800FD74014BFD8C068022BF03104305028D038E045303FE8B058C06800FBF040C74A3
:2011D800024DFC8E0774014CFD8F068D3D8E3E758203020A58753D03753E00758202120A53
:0711F800589000320205923D
:2011FF00759850438E01438E0475D74175D6FD438E102285829910990280FB22AE82AF83AA
:10121F00C007C006121212D006D0078E828F83220B
:20122F007A10E4FBFCE58225E0F582E58333F583EB33FBEC33FCEB951EF5F0EC951F4006A7
:09124F00FCABF0438201DADD2260
:06007B00E478FFF6D8FD59
:200059007900E94400601B7A00901308780175A000E493F2A308B8000205A0D9F4DAF27532
:02007900A0FFE6
:1B12580020F71130F6138883A88220F509F6A8837583002280FEF280F5F02295
:1D127300E582851EF0A4C582C0F0851FF0A4D0F025F0C583851EF0A42583F58322FB
:20129000E51E451F60467A01E51E25E0F51EE51F334012F51FE582951EE583951F40030A7B
:2012B00080E6C3E51F13F51FE51E13F51EC3E582951EF5F0E583951F4005F58385F082C34C
:0D12D000E51F13F51FE51E13F51EDAE122E0
:200081007800E84400600A790175A000E4F309D8FC7800E84400600C7900900001E4F0A37D
:0400A100D8FCD9FAB4
:0D004C007581461212DDE582600302004955
:0412DD0075820022F4
:00000001FF
