:20014000AF827E008EF005F07C80E4FD3392D28008A2D2ED13FDEC13FCD5F0F58F027B004F
:1B016000EA5204EB5205EC4D24FF92B2D2B4C2B40EBE080040CED2B3C2B32268
:1C00D700750F007508FC750921750A0A750B00750C00750D40750E1FD200D201DE
:20017B00AF82E51E6008EF90136793F58222EF90134D93F58222E51960127510157511FF09
:20019B007512FF7513FF7582FF0203747510167511FF7512FF7513FF7582FF020374AE82FC
:2001BB00AF83751E10751F27C007C00612129BAC82D006D007751E10751F278E828F83C02D
:2001DB0007C006C0041212FC751EE8751F0312129BAB82D004D006D007751EE8751F038E34
:2001FB00828F83C007C006C004C0031212FC751E64751F0012129BAA82D003D004D006D059
:20021B0007751E64751F008E828F83C004C003C0021212FCAE82D002D003D00475F00AEEA0
:20023B0084FEBC0100500F8B108A118E127513037582640203748B108A118E127513038CE3
:20025B0082020374E51AB5080EE51BB509098508828509830201B930010F851A08851B098B
:20027B00851A82851B830201B9300030E51AB50806E51BB50901220508E4B508020509851D
:20029B0008828509831201B9AE08AF09C374309E742A9F503A7508B075091D22200030E583
:2002BB001AB50806E51BB5090122150874FFB5080215098508828509831201B9AE08AF099E
:2002DB00C3EE94B0EF941D500675083075092A22AF188F0675F00AEE84F51075F00AEF847D
:2002FB00AFF08F11751264751364758264020374AF0B8F0675F064EE84FE8F0575F064ED27
:20031B0084ADF075F00AED84FD75F00AEF84AFF0EE600F8E108D118F127513FF7582FF028A
:20033B0003747510FF8D118F127513FF7582FF020374AF0C8F0675F00AEE84AEF08E12758E
:20035B00F064EF84AFF075F00AEF84F5117510197513FF758217020374AF82D2A3A2A3920B
:20037B00A2A2A292A1A2A192A0E50F24FC500302041EE50F75F003A4900397730203A30202
:20039B0003C30203E2020401BF1A00400302041E7401B5130474018001E4F51E8F821201FC
:2003BB007B120140C2A0805B74E6251040557402B5130474018001E4F51E85108212017B1F
:2003DB00120140C2A1803C74E6251140367403B5130474018001E4F51E85118212017B12A2
:2003FB000140C2A2801D74E6251240177404B5130474018001E4F51E85128212017B1201CD
:20041B0040C2A3050FE50F24FC5003750F0022740AB50A0312025F7401B50A031202EB749E
:20043B0002B50A0312030B7403B50A03120191740EB50A0302034D22120565750A03020424
:20045B005CE5197006750D40750E1F22E519600302042AAE0DAF0EC3740A9EE49F500D1251
:1B047B00042A150D74FFB50D02150E22D2A3A2A392A2A2A292A1A2A192A0229E
:20134D00C0F9A4B0999282F880907F8883C6A1868E8CC1CE9189C712C8AB40792430191200
:07136D00027800107FC78920
:2004960075C70075C50075C60075C38075C40022AE82AF8375C78075C5038EC48FC375C648
:2004B6005A75C6A5120000020496AE82AF8375C78075C5018EC48FC375C65A75C6A51200BA
:2004D60000AFC2C007120496D0078F8222AE82AF8375C78075C5017D008D048E028F038C03
:2004F600017C00E92AFAEC3BFB8AC48BC375C65A75C6A5C007C006C005120000120000D0E3
:2005160005D006D007ED2514FAE43515FBAC168A828B838CF0E5C21212C40DBD030040B91D
:20053600020496AE82AF8375C78075C5028EC48FC38517C275C65A75C6A51200000204968A
:1200F30075180A751901751AD8751B1D751C00751D009E
:20055600900000228582182285821A85831B229004001204C0E58230E005751900800375C0
:1C05760019019004001204A6851917900400020539222222758200229000002245
:18059200438E805389F0438901758A88758C96C28DD2A9D2AFD28C227E
:2005AA0000007F427E21DFFEDEFC22007F04DFFE22AE82AF838E048F051EBEFF011FEC4DBA
:2005CA00600DC007C0061205AAD006D00780E6220205BBAE82AF838E048F051EBEFF011FDC
:1205EA00EC4D600DC007C0061205B5D006D00780E622CB
:20010500752200752300752400752500752600E4F527F528F529F52AF52BF52CF52DF52EFD
:12012500F52FF530F531F532F533F534F535F536F53760
:2005FC008522827522002230963AE4F527F528E52F6006752F00752201E5336021E5356017
:20061C00057535008015E5366005753600800CE5376005753700800375220B753300752331
:20063C00000206BDE52360030206BDE5357072E536706EE537706A0527E4B527020528C3E0
:20065C0074149527E495285003752F010527E4B527020528C3745895277402952850422056
:20067C009711752301753301752F0075350175220C802E209511752301753301752F0075B3
:20069C00360175220D801A209411752301753301752F0075370175220E8006752F007533FA
:2006BC0001309713E5306006753000752202E4F524F529F52A8049E5247045E52F7041E51F
:2006DC0033703DE5357039E5367035E53770310529E4B52902052AC374149529E4952A50C1
:2006FC00037530020529E4B52902052AC3745895297402952A50097530007524027522164B
:20071C00309513E5316006753100752203E4F525F52BF52C8049E5257045E52F7041E53385
:20073C00703DE5357039E5367035E5377031052BE4B52B02052CC37414952BE4952C500386
:20075C00753101052BE4B52B02052CC37458952B7402952C500975310075250175222130A7
:20077C009412E5326006753200752204E4F526F52DF52E22E5267045E52F7041E533703D48
:20079C00E5357039E5367035E5377031052DE4B52D02052EC37414952DE4952E5003753222
:1E07BC0001052DE4B52D02052EC37458952D7402952E500975320075260175222C22E6
:0400000002007E324A
:03000B0002099057
:200010000000E2FBEAF2802C0000E0FBEAF08024E6B50202EBF62200E2B50202EBF22200D6
:20003000E0B50202EBF02230F6E0A88220F5D3EAC6F582228B822230F6E6A88220F5D980E6
:01005000CFE0
:0301370075380018
:03013D000200516C
:030051000209653C
:2007DA001205FCE582FF700122BF0C07C007120453D007E538601CBF0119120E82AE82BE18
:2007FA000F047E0080010E8E82C006120E90D0068E0C22E538601CBF0219120E82E582FE2D
:20081A0070047E0F80011E8E82C006120E90D0068E0C22E538600ABF0307753800750A0A80
:20083A0022E5386012BF040F120F80851A08851B09753800D20122BF0D17120E8285820CF0
:20085A00753801750A0EE519700675190175380B22BF0E0A12114185820B750A0222BF16A1
:20087A0009750A0112045C0210E1BF0123750A0112045CAD187E000DBD00010EC3ED94102B
:20089A00EE648094805008E51804F58202107622BF0213750A0112045CE5186008E51814A2
:2008BA00F58202107622BF0332D200C20112045CAD1AAE1B740A2DFDE43EFE8D1A8E1BC397
:2008DA0074309D742A9E5006751AB0751B1D851A82851B83120DC1751CFF22BF0433C200B1
:2008FA00C20112045CAD1AAE1BED24F6FDEE34FFFE8D1A8E1BC3ED94B0EE941D5006751A2E
:20091A0030751B2A851A82851B83120DC1751CFF22BF211AE51DB51C05751C008002051CF7
:20093A00D20112045C851C8212058E020DC1BF2C19E51C7005851D1C8002151CD2011204EC
:20095A005C851C8212058E020DC122120B4490000A1205BB851A08851B095395F043960F8A
:20097A00120592901DD8120DC1D20175820A1210761207DA80FBC021C0E0C0F0C082C083BF
:20099A00C007C006C005C004C003C002C001C000C0D075D00012046712060374F6250A40DB
:2009BA001D053BE4B53B02053CAE3BAF3CC3EE94A0EF940F4008E4F53BF53C750A0A758A49
:2009DA0088758C96C28DD0D0D000D001D002D003D004D005D006D007D083D082D0F0D0E03E
:0509FA00D021020054B1
:2009FF0090000A0205DDD2A4D2A51209FFC2A41209FFC2A522C2A4D2A51209FFD2A40209D2
:200A1F00FFE58224FF92A41209FFD2A51209FFC2A522D2A41209FFD2A51209FFA2A49202C9
:200A3F00C2A5A202E433F58222AF827E088E051EED6021EF30E704D2A48002C2A4C007C017
:200A5F00061209FFD2A51209FFD006D007C2A5EF2FFF80D9120A31E58224FFE433F58222B5
:200A7F00AF827E00D2A47D088D041DEC602BEE2EFED2A5C007C006C0051209FFD005D006E0
:200A9F00D00730A4010EC2A5C007C006C0051209FFD005D006D00780CF8F82C006120A20C6
:050ABF00D0068E82222A
:03013A00753D0010
:200AC400AF82754000754100AE3F8E058D40AE3E8E41C007120A05758222120A48D0078FA3
:200AE40082120A48854082120A48854182120A48020A14AF82754200754300C007120A050D
:200B0400758222120A48D0078F82120A48120A05758223120A48758200120A7FE582F54239
:200B2400758201120A7FE582F543120A14AF427E00AC437D00EC4206ED42078E828F8322C6
:200B4400753E01753FC0758202120AC49002581205BB753E02753F00758202120AC4900002
:200B6400321205BB753E0D753FC0758202120AC49000321205BB753E18753F007582031241
:200B84000AC4753E00753F04758204120AC4753EA5753F86758205120AC4753E00753F80E8
:200BA400758206120AC4753E1A753F5F758207120AC47582000210B4AE82AF83758203C0BD
:200BC40007C006120AF7AC82D006D00753040CE4C313CC13CCC313CC13CCEC700C7BFC7DB1
:200BE4002175443075452A8053BC010C7BB07D1D75448C7545238044BC020C7BB07D1D75B8
:200C0400443075452A8035BC032E758207C007C006120AF7AC83D006D007EC035401600CAC
:200C24007B647D197544B075451D80107B887D137544B075451D800490000022758203C0A8
:200C440007C006C005C003120AF7A882D003D005D006D007530003E870057A0AFC801FB81F
:200C640001067A147C008016B802067A057C00800DB803067A027C00800490000022C3EEE1
:200C84009BEF9D500490000022C3E5449EE5459F500490000022EEC39BF582EF9DF5838A79
:200CA4001E8C1F02129BAE82AF83758203C007C006120AF7AC82D006D00753040CE4C313C4
:200CC400CC13CCC313CC13CC4C700C7AFC7B2175463075472A8053BC010C7AB07B1D754620
:200CE4008C7547238044BC020C7AB07B1D75463075472A8035BC032E758207C007C0061225
:200D04000AF7AD83D006D007ED035401600C7A647B197546B075471D80107A887B137546AF
:200D2400B075471D800490000022758203C007C006C003C002120AF7AC82D002D003D00628
:200D4400D0075304037D00EC4D7005780AF9801FBC0106781479008016BC02067805790001
:200D6400800DBC030678027900800490000022881E891F8E828F83C003C0021212DFAE82CC
:200D8400AF83D002D003EE2AFEEF3BFFC3E5469EE5479F500490000022C3EE9AEF9B5004B3
:200DA400900000228E828F832275820A120AF7AE82AF835307038E828F83020CAAAE82AFAD
:200DC40083C007C006120BBCAC82AD83758203C005C004120AF7AA82D004D00553023F7B4E
:200DE40000530503ED5403A2E0CC13CC13A2E0CC13CC13CCFDEA4204EB420574104CF53EA2
:200E04008D3F758203120AC4D006D0077C007D0075820AC007C006C005C004120AF7E582F1
:200E24008583F0D004D005D006D007E5F020E643900001C007C006C005C0041205BBD004F5
:200E4400D005D006D0078C028D030CBC00010DC374F49A74019B50B8758203120AF7AC8200
:200E6400AD835304EF8C3E8D3F758203120AC475820022750A0A8E1A8F1B75820122758283
:200E840005120AF7AE83740F5EF58222AF82758205C007120AF7AD82AE83D0075306F08F75
:200EA400047F00ED4207EE42048F3E8C3F758205020AC4AF82758202C007120AF7AD82AEFC
:200EC40083D007BF01098D048E0743070280075306FD8D048E074307018C3E8F3F7582029A
:200EE400120AC47E007F0075820AC007C006120AF7E5828583F0D006D007E5F020E63A90BF
:200F0400000AC007C0061205BBD006D0078E048F050EBE00010FC374C89CE49D50C9758289
:200F240002120AF7AE82AF835307FE8E3E8F3F758202120AC490000022758203120AF7E5C7
:200F4400828583F04410F53E85F03F758203120AC4758202120AF7AE82AF835307FE8E3E6C
:200F64008F3F758202120AC4020DAD020EB775820B120AF7AE835306018E82227582031265
:200F84000AF7AE8253060CE4C313CE13CEC313CE13CEEEFF700A7DFC7E217B307C2A803F3A
:200FA400BF010A7DB07E1D7B8C7C238032BF020A7DB07E1D7B307C2A8025BF0321758207D9
:200FC400120AF7E583035401600A7D647E197BB07C1D800B7D887E137BB07C1D8001228D7F
:200FE400088E098D1A8E1BD200750A0AC2018D828E83C004C003120DC19000321205BB12B3
:201004000587D003D0047E007F00EBB51A06ECB51B02804B758201C007C006C004C0031235
:201024000EB785821A85831B120F72E582D003D004D006D00760D38E82851A1E851B1FC0D6
:2010440007C006C004C0031205889000641205BBD003D004D006D0070EBE00AE0F80ABEEDD
:2010640014F582120589751C0075820012058E020DC1AF82758205C007120AF7AD82AE83DD
:20108400D0075305F08F0353030F7C00ED4203EE42048B3E8C3F758205C007120AC4D00746
:2010A4008F8212055AE53D70067582010210B422AF82758202C007120AF7AD82AE83D007F7
:2010C400EF60098D048E0743074080075306BF8D048E078C3E8F3F758202020AC4758202E5
:2010E400120AF7AE82E583FF23235403F430E00C8E048F05430540753D01800A5307BF8E03
:20110400048F05753D008C3E8D3F758202020AC4AF82758202C007120AF7AD82AE83D007E7
:20112400EF60098D048E0753077F80074306808D048E078C3E8F3F758202020AC475820B7B
:20114400120AF7E583C313F58222758200020AF7AF82758203C007120AF7AD82AE83D0076B
:20116400BF01118D038E045303F38B3E8C3F758203020AC4BF02148D038E045303F7740415
:201184004BF53E8C3F758203020AC4BF03144305088D038E045303FB8B3E8C3F758203020F
:2011A4000AC4BF042743050474084DF53E8E3F758203120AC4758207120AF7AB82AC8343D4
:2011C40004028B3E8C3F758207020AC4BF052743050474084DF53E8E3F758203120AC47554
:2011E4008207120AF7AE82AF835307FD8E3E8F3F758207020AC422AF82758203C007120AFE
:20120400F7AD82AE83D007BF010D8D038E045303FC8B058C068034BF020F8D038E0453033D
:20122400FD74014BFD8C068022BF03104305028D038E045303FE8B058C06800FBF040C7436
:20124400024DFC8E0774014CFD8F068D3E8E3F758203020AC4753E03753F00758202120A76
:07126400C49000320205BB3B
:20126B00759850438E01438E0475D74175D6FD438E102285829910990280FB22AE82AF833D
:10128B00C007C00612127ED006D0078E828F832233
:20129B007A10E4FBFCE58225E0F582E58333F583EB33FBEC33FCEB951EF5F0EC951F40063B
:0912BB00FCABF0438201DADD22F4
:0600AD00E478FFF6D8FD27
:20008B007900E94400601B7A00901374780175A000E493F2A308B8000205A0D9F4DAF27594
:0200AB00A0FFB4
:20005400C000A88118C0D0B6001B18B610004015B637005010C0E0E65407B406005004E6D5
:0A00740054F8F6D0E0D0D0D00032EE
:1B12C40020F71130F6138883A88220F509F6A8837583002280FEF280F5F02229
:1D12DF00E582851EF0A4C582C0F0851FF0A4D0F025F0C583851EF0A42583F583228F
:2012FC00E51E451F60467A01E51E25E0F51EE51F334012F51FE582951EE583951F40030A0F
:20131C0080E6C3E51F13F51FE51E13F51EC3E582951EF5F0E583951F4005F58385F082C3DF
:0D133C00E51F13F51FE51E13F51EDAE12273
:2000B3007800E84400600A790175A000E4F309D8FC7800E84400600C7900900001E4F0A34B
:0400D300D8FCD9FA82
:0D007E00758147121349E5826003020051AD
:041349007582002287
:00000001FF
