:20014300AF827E008EF005F07C80E4FD3392D28008A2D2ED13FDEC13FCD5F0F58F027B004C
:1B016300EA5204EB5205EC4D24FF92B2D2B4C2B40EBE080040CED2B3C2B32265
:1F00D700750F007510007508FC750921750A0A750B00750C00750D40750E1FD200D20156
:20017E00D2A3A2A392A2A2A292A1A2A192A0E50F24FC403CE50F75F003A490019C73020154
:20019E00A80201B20201BC0201C67582BF120143C2A0801C7582BF120143C2A1801275825A
:2001BE00BF120143C2A280087582BF120143C2A3050FE50F24FC5003750F0022AF82E54830
:2001DE006008EF90138293F58222EF90136893F58222E51A60127511157512FF7513FF75A5
:2001FE0014FF7582FF0203D37511167512FF7513FF7514FF7582FF0203D3AE82AF837548E2
:20021E0010754927C007C0061212B6AC82D006D0077548107549278E828F83C007C006C068
:20023E00041213177548E87549031212B6AB82D004D006D0077548E87549038E828F83C02A
:20025E0007C006C004C0031213177548647549001212B6AA82D003D004D006D00775486496
:20027E007549008E828F83C004C003C002121317AE82D002D003D00475F00AEE84FEBC01B6
:20029E0000500F8B118A128E137514037582640203D38B118A128E137514038C820203D3FE
:2002BE00E51BB5080EE51CB5090985088285098302021830010F851B08851C09851B828518
:2002DE001C83020218300030E51BB50806E51CB50901220508E4B5080205098508828509E5
:2002FE0083120218AE08AF09C374309E742A9F503A7508B075091D22200030E51BB50806FA
:20031E00E51CB5090122150874FFB508021509850882850983120218AE08AF09C3EE94B0C1
:20033E00EF941D500675083075092A22AF198F0675F00AEE84F51175F00AEF84AFF08F12CC
:20035E007513647514647582640203D3AF0B8F0675F064EE84FE8F0575F064ED84ADF0750B
:20037E00F00AED84FD75F00AEF84AFF0EE600F8E118D128F137514FF7582FF0203D375115D
:20039E00FF8D128F137514FF7582FF0203D3AF0C8F0675F00AEE84AEF08E1375F064EF84FD
:2003BE00AFF075F00AEF84F5127511197514FF7582170203D3AF82D2A3A2A392A2A2A29295
:2003DE00A1A2A192A0E51024FC500302047DE51075F003A49003F6730204020204220204CB
:2003FE0041020460BF1A00400302047D7401B5140474018001E4F5488F821201DA120143EC
:20041E00C2A0805B74E6251140557402B5140474018001E4F5488511821201DA120143C2E5
:20043E00A1803C74E6251240367403B5140474018001E4F5488512821201DA120143C2A21F
:20045E00801D74E6251340177404B5140474018001E4F5488513821201DA120143C2A305D5
:20047E0010E51024FC500375100022740AB50A030202BE7401B50A0302034A7402B50A037F
:20049E0002036A7403B50A030201F0740EB50A030203AC740FB50A0302017E221205CC756E
:2004BE000A030204C3E51A7006750D40750E1F22E51A6003020489AE0DAF0EC3740A9EE421
:1F04DE009F500D120489150D74FFB50D02150E22D2A3A2A392A2A2A292A1A2A192A022CA
:20136800C0F9A4B0999282F880907F8883C6A1868E8CC1CE9189C712C8AB407924301912E5
:07138800027800107FC78905
:2004FD0075C70075C50075C60075C38075C40022AE82AF8375C78075C5038EC48FC375C6E1
:20051D005A75C6A51200000204FDAE82AF8375C78075C5018EC48FC375C65A75C6A51200EB
:20053D0000AFC2C0071204FDD0078F8222AE82AF8375C78075C5017D008D048E028F038C34
:20055D00017C00E92AFAEC3BFB8AC48BC375C65A75C6A5C007C006C005120000120000D07B
:20057D0005D006D007ED2515FAE43516FBAC178A828B838CF0E5C21212DF0DBD030040B998
:20059D000204FDAE82AF8375C78075C5028EC48FC38518C275C65A75C6A51200000204FD54
:1200F60075190A751A01751BD8751C1D751D00751E0095
:2005BD00900000228582192285821B85831C22900400120527E58230E005751A00800375ED
:1C05DD001A0190040012050D851A189004000205A022222275820022900000220C
:1805F900438E805389F0438901758A88758C96C28DD2A9D2AFD28C2217
:2006110000007F427E21DFFEDEFC22007F04DFFE22AE82AF838E048F051EBEFF011FEC4D52
:20063100600DC007C006120611D006D00780E622020622AE82AF838E048F051EBEFF011FA4
:12065100EC4D600DC007C00612061CD006D00780E622FB
:20010800752200752300752400752500752600E4F527F528F529F52AF52BF52CF52DF52EFA
:12012800F52FF530F531F532F533F534F535F536F5375D
:200663008522827522002230963AE4F527F528E52F6006752F00752201E5336021E53560AF
:20068300057535008015E5366005753600800CE5376005753700800375220B7533007523CA
:2006A30000020724E5236003020724E5357072E536706EE537706A0527E4B527020528C3A9
:2006C30074149527E495285003752F010527E4B527020528C37458952774029528504220EF
:2006E3009711752301753301752F0075350175220C802E209511752301753301752F00754C
:20070300360175220D801A209411752301753301752F0075370175220E8006752F00753392
:2007230001309713E5306006753000752202E4F524F529F52A8049E5247045E52F7041E5B7
:2007430033703DE5357039E5367035E53770310529E4B52902052AC374149529E4952A5059
:20076300037530020529E4B52902052AC3745895297402952A5009753000752402752216E3
:20078300309525E50060057500008013E5006005750000800AE5316006753100752203E431
:2007A300F525F52BF52C8049E5257045E52F7041E533703DE5357039E5367035E537703189
:2007C300052BE4B52B02052CC37414952BE4952C5003753101052BE4B52B02052CC374588F
:2007E300952B7402952C5009753100752501752221309412E5326006753200752204E4F53F
:2008030026F52DF52E22E5267045E52F7041E533703DE5357039E5367035E5377031052D8C
:20082300E4B52D02052EC37414952DE4952E5003753201052DE4B52D02052EC37458952D8D
:100843007402952E500975320075260175222C22EB
:0400000002007E324A
:03000B000209BB2C
:200010000000E2FBEAF2802C0000E0FBEAF08024E6B50202EBF62200E2B50202EBF22200D6
:20003000E0B50202EBF02230F6E0A88220F5D3EAC6F582228B822230F6E6A88220F5D980E6
:01005000CFE0
:03013A0075380015
:0301400002005169
:0300510002099011
:20085300120663E582FF700122BF0C07C0071204BAD007E538600ABF0307753800750A0A4B
:2008730022E5386012BF040F120FAB851B08851C09753800D20122BF1E0122BF0E0A121128
:200893005C85820B750A0222BF1609750A011204C30210FCBF0123750A011204C3AD197E6F
:2008B300000DBD00010EC3ED9410EE648094805008E51904F58202109122BF0213750A0128
:2008D3001204C3E5196008E51914F58202109122BF0332D200C2011204C3AD1BAE1C740A06
:2008F3002DFDE43EFE8D1B8E1CC374309D742A9E5006751BB0751C1D851B82851C83120D60
:20091300EC751DFF22BF0433C200C2011204C3AD1BAE1CED24F6FDEE34FFFE8D1B8E1CC307
:20093300ED94B0EE941D5006751B30751C2A851B82851C83120DEC751DFF22BF211E750A82
:200953000F758201120F9A85821B85831C750A0A851B08851C09751DFFD20122BF2C1D759E
:200973000A0F758200120F9A85821B85831C750A0A851B08851C09751DFFD20122120B6F66
:2009930090000A120622851B08851C095395F043960F1205F9901DD8120DECD20175820AEA
:2009B30012109112085380FBC021C0E0C0F0C082C083C007C006C005C004C003C002C00177
:2009D300C000C0D075D0001204CE12066A74F6250A401D053BE4B53B02053CAE3BAF3CC325
:2009F300EE94A0EF940F4008E4F53BF53C750A0A758A88758C96C28DD0D0D000D001D0029A
:170A1300D003D004D005D006D007D083D082D0F0D0E0D02102005447
:200A2A0090000A020644D2A4D2A5120A2AC2A4120A2AC2A522C2A4D2A5120A2AD2A4020AB9
:200A4A002AE58224FF92A4120A2AD2A5120A2AC2A522D2A4120A2AD2A5120A2AA2A49202C3
:200A6A00C2A5A202E433F58222AF827E088E051EED6021EF30E704D2A48002C2A4C007C0EC
:200A8A0006120A2AD2A5120A2AD006D007C2A5EF2FFF80D9120A5CE58224FFE433F5822207
:200AAA00AF827E00D2A47D088D041DEC602BEE2EFED2A5C007C006C005120A2AD005D00689
:200ACA00D00730A4010EC2A5C007C006C005120A2AD005D006D00780CF8F82C006120A4B44
:050AEA00D0068E8222FF
:03013D00753D000D
:200AEF00AF82754000754100AE3F8E058D40AE3E8E41C007120A30758222120A73D0078F22
:200B0F0082120A73854082120A73854182120A73020A3FAF82754200754300C007120A300A
:200B2F00758222120A73D0078F82120A73120A30758223120A73758200120AAAE582F54237
:200B4F00758201120AAAE582F543120A3FAF427E00AC437D00EC4206ED42078E828F832245
:200B6F00753E01753FC0758202120AEF900258120622753E02753F00758202120AEF900019
:200B8F0032120622753E0D753FC0758202120AEF900032120622753E18753F00758203121B
:200BAF000AEF753E00753F04758204120AEF753EA5753F86758205120AEF753E00753F803C
:200BCF00758206120AEF753E1A753F5F758207120AEF7582000210CFAE82AF83758203C021
:200BEF0007C006120B22AC82D006D00753040CE4C313CC13CCC313CC13CCEC700C7BFC7D5A
:200C0F002175443075452A8053BC010C7BB07D1D75448C7545238044BC020C7BB07D1D758C
:200C2F00443075452A8035BC032E758207C007C006120B22AC83D006D007EC035401600C55
:200C4F007B647D197544B075451D80107B887D137544B075451D800490000022758203C07D
:200C6F0007C006C005C003120B22A882D003D005D006D007530003E870057A0AFC801FB8C8
:200C8F0001067A147C008016B802067A057C00800DB803067A027C00800490000022C3EEB6
:200CAF009BEF9D500490000022C3E5449EE5459F500490000022EEC39BF582EF9DF5838A4E
:200CCF00488C490212B6AE82AF83758203C007C006120B22AC82D006D00753040CE4C313FE
:200CEF00CC13CCC313CC13CC4C700C7AFC7B2175463075472A8053BC010C7AB07B1D7546F5
:200D0F008C7547238044BC020C7AB07B1D75463075472A8035BC032E758207C007C00612F9
:200D2F000B22AD83D006D007ED035401600C7A647B197546B075471D80107A887B13754658
:200D4F00B075471D800490000022758203C007C006C003C002120B22AC82D002D003D006D1
:200D6F00D0075304037D00EC4D7005780AF9801FBC0106781479008016BC020678057900D6
:200D8F00800DBC030678027900800490000022884889498E828F83C003C0021212FAAE8232
:200DAF00AF83D002D003EE2AFEEF3BFFC3E5469EE5479F500490000022C3EE9AEF9B500488
:200DCF00900000228E828F832275820A120B22AE82AF835307038E828F83020CD5AE82AF2B
:200DEF0083C007C006120BE7AC82AD83758203C005C004120B22AA82D004D00553023F7BCC
:200E0F0000530503ED5403A2E0CC13CC13A2E0CC13CC13CCFDEA4204EB420574104CF53E76
:200E2F008D3F758203120AEFD006D0077C007D0075820AC007C006C005C004120B22E5826F
:200E4F008583F0D004D005D006D007E5F020E643900001C007C006C005C004120622D00462
:200E6F00D005D006D0078C028D030CBC00010DC374F49A74019B50B8758203120B22AC82A9
:200E8F00AD835304EF8C3E8D3F758203120AEF75820022750A0A8E1B8F1C7582012275822B
:200EAF0005120B22AE83740F5EF58222AF82758205C007120B22AD82AE83D0075306F08FF2
:200ECF00047F00ED4207EE42048F3E8C3F758205020AEFAF82758202C007120B22AD82AE7A
:200EEF0083D007BF01098D048E0743070280075306FD8D048E074307018C3E8F3F7582026F
:200F0F00120AEF7E007F0075820AC007C006120B22E5828583F0D006D007E5F020E63A903C
:200F2F00000AC007C006120622D006D0078E048F050EBE00010FC374C89CE49D50C97582F6
:200F4F0002120B22AE82AF835307FE8E3E8F3F758202120AEF90000022758203120B22E519
:200F6F00828583F04410F53E85F03F758203120AEF758202120B22AE82AF835307FE8E3EEA
:200F8F008F3F758202120AEF020DD8020EE275820B120B22AE835306018E82227F00758223
:200FAF0003C007120B22AD82D00753050CE4C313CD13CDC313CD13CDEDFE700A7CFC7D214A
:200FCF007A307B2A8044BE010A7CB07D1D7A8C7B238037BE020A7CB07D1D7A307B2A802A7C
:200FEF00BE0326758207C007120B22AE83D007EE035401600A7C647D197AB07B1D800B7C00
:20100F00887D137AB07B1D8001228C088D098C1B8D1CD200750A0AC2018C828D83C007C007
:20102F0003C002120DEC9000321206221205EED002D003D007EAB51B06EBB51C02803375AE
:20104F008201C007C003C002120EE285821B85831C120F9DE582D002D003D00760D7851BF2
:20106F0048851C497582001205EF9000641206227F01EF600C751D007582001205F5020D85
:20108F00EC22AF82758205C007120B22AD82AE83D0075305F08F0353030F7C00ED4203EEEE
:2010AF0042048B3E8C3F758205C007120AEFD0078F821205C1E53D70067582010210CF2226
:2010CF00AF82758202C007120B22AD82AE83D007EF60098D048E0743074080075306BF8D66
:2010EF00048E078C3E8F3F758202020AEF758202120B22AE82E583FF23235403F430E00C40
:20110F008E048F05430540753D01800A5307BF8E048F05753D008C3E8D3F758202020AEF5A
:20112F00AF82758202C007120B22AD82AE83D007EF60098D048E0753077F80074306808D05
:20114F00048E078C3E8F3F758202020AEF75820B120B22E583C313F58222758200020B221D
:20116F00AF82758203C007120B22AD82AE83D007BF01118D038E045303F38B3E8C3F758231
:20118F0003020AEFBF02148D038E045303F774044BF53E8C3F758203020AEFBF031443052A
:2011AF00088D038E045303FB8B3E8C3F758203020AEFBF042743050474084DF53E8E3F75A8
:2011CF008203120AEF758207120B22AB82AC834304028B3E8C3F758207020AEFBF052743D3
:2011EF00050474084DF53E8E3F758203120AEF758207120B22AE82AF835307FD8E3E8F3F79
:20120F00758207020AEF22AF82758203C007120B22AD82AE83D007BF010D8D038E045303F7
:20122F00FC8B058C068034BF020F8D038E045303FD74014BFD8C068022BF03104305028DEE
:20124F00038E045303FE8B058C06800FBF040C74024DFC8E0774014CFD8F068D3E8E3F7562
:17126F008203020AEF753E03753F00758202120AEF9000320206228E
:20128600759850438E01438E0475D74175D6FD438E102285829910990280FB22AE82AF8322
:1012A600C007C006121299D006D0078E828F8322FD
:2012B6007A10E4FBFCE58225E0F582E58333F583EB33FBEC33FCEB9548F5F0EC95494006CC
:0912D600FCABF0438201DADD22D9
:0600AD00E478FFF6D8FD27
:20008B007900E94400601B7A0090138F780175A000E493F2A308B8000205A0D9F4DAF27579
:0200AB00A0FFB4
:20005400C000A88118C0D0B6001B18B610004015B637005010C0E0E65407B406005004E6D5
:0A00740054F8F6D0E0D0D0D00032EE
:1B12DF0020F71130F6138883A88220F509F6A8837583002280FEF280F5F0220E
:1D12FA00E5828548F0A4C582C0F08549F0A4D0F025F0C5838548F0A42583F58322F6
:20131700E548454960467A01E54825E0F548E549334012F549E5829548E583954940030AA3
:2013370080E6C3E54913F549E54813F548C3E5829548F5F0E58395494005F58385F082C3C8
:0D135700E54913F549E54813F548DAE122B0
:2000B3007800E84400600A790175A000E4F309D8FC7800E84400600C7900900001E4F0A34B
:0400D300D8FCD9FA82
:0D007E00758149121364E582600302005190
:04136400758200226C
:00000001FF
